:100000000C9462000C948A000C948A000C948A0070
:100010000C948A000C948A000C948A000C948A0038
:100020000C948A000C948A000C948A000C948A0028
:100030000C948A000C948A000C948A000C948A0018
:100040000C94CD020C948A000C948A000C948A00C3
:100050000C948A000C948A000C948A000C948A00F8
:100060000C949D030C948A000000000024002700DB
:100070002A0000000000250028002B0000000000DE
:1000800023002600290004040404040404040202DA
:100090000202020203030303030301020408102007
:1000A0004080010204081020010204081020000012
:1000B0000008000201000003040700000000000027
:1000C0000000F20A11241FBECFEFD8E0DEBFCDBF83
:1000D00023E0ACE4B2E001C01D92A333B207E1F724
:1000E00012E0A0E0B1E0E2EEF6E102C005900D9270
:1000F000AC34B107D9F710E0C2E6D0E004C02197D4
:10010000FE010E94640BC136D107C9F70E94D807CF
:100110000C946F0B0C940000CF92DF92EF92FF9241
:100120000F931F93CF93DF936C017A018B01C0E093
:10013000D0E0CE15DF0581F0D8016D918D01D6019B
:10014000ED91FC910190F081E02DC6010995892B7C
:1001500011F02196EECF7E01C701DF91CF911F9163
:100160000F91FF90EF90DF90CF900895FC01908168
:1001700090539A3008F090E0818180532AE0929F5A
:10018000800D1124089585ED8093BC008091BC0002
:1001900084FDFCCF1092EA02089540916C02262F54
:1001A00030E0240F311D21323105DCF42091EA02C8
:1001B0002430C9F4FC0180E090E0861758F43091B7
:1001C0006C022191DC01A45BBD4FA30FB11D2C93E8
:1001D0000196F3CF80916C02680F60936C0280E00F
:1001E000089581E0089582E008950895089508959E
:1001F000E091A3028091A202E81730F4F0E0EC5500
:10020000FD4F808190E008958FEF9FEF08959091CA
:10021000A3028091A202981750F4E92FF0E0EC5568
:10022000FD4F208130E09F5F9093A30202C02FEF2B
:100230003FEFC90108958091A20290E02091A302AE
:10024000821B91090895CF92DF92EF92FF920F9354
:100250001F93CF93DF937C01CB018A012091EB02A6
:10026000222389F0EB016B01C40ED51ECC15DD05F0
:1002700069F06991D701ED91FC910190F081E02D39
:10028000C7010995F3CF642F0E94CD00C801DF910B
:10029000CF911F910F91FF90EF90DF90CF90089535
:1002A000CF93DF931F92CDB7DEB769832091EB0226
:1002B0002223D1F020910E03203240F021E030E0E3
:1002C000FC013383228380E090E015C08091EC0232
:1002D000E82FF0E0E351FD4F998190838F5F809389
:1002E000EC0280930E0305C061E0CE0101960E94EE
:1002F000CD0081E090E00F90DF91CF9108950895B7
:1003000080E090E0089561E080E00E94BB0580916C
:100310009302909194020E940E0683EE91E00E9457
:10032000B90580919102909192020E940E0683EE8F
:1003300091E00E94B90580918F02909190020C94F7
:100340000E060E946A0BCF93DF93EC0160E08E8172
:100350000E94600661E08E810E94600660E08E81EE
:100360000E9460068BE891E00197F1F7DF91CF9151
:10037000089561E08DE00E94600664EF71E080E026
:1003800090E00E949E0760E08DE00E94600664EFAE
:1003900071E080E090E00C949E07CF93DF93EC0136
:1003A00089E00E943706892B09F446C00E940C059B
:1003B00060E080E00E94BB0580E291E00E94B90508
:1003C000CE010E940E0661E080E00E94BB05809194
:1003D0009302909194020E940E0683EE91E00E9497
:1003E000B90580919102909192020E940E0683EECF
:1003F00091E00E94B90580918F02909190020E9435
:100400000E0664E670E080E090E00E949E078AE0BD
:100410000E943706892B21F660919302809100019A
:10042000909101019C012F5F3F4F30930101209378
:1004300000010E94280B17C08091930290919402B2
:1004400001968831910529F090939402809393024C
:1004500004C0109294021092930289E00E94370621
:10046000892BD9F3A3CF8AE00E943706892BD9F3D1
:1004700089E00E943706892B09F446C00E940C05CA
:1004800060E080E00E94BB0580E291E00E94B90537
:10049000CE010E940E0661E080E00E94BB058091C3
:1004A0009302909194020E940E0683EE91E00E94C6
:1004B000B90580919102909192020E940E0683EEFE
:1004C00091E00E94B90580918F02909190020E9464
:1004D0000E0664E670E080E090E00E949E078AE0ED
:1004E0000E943706892B21F66091910280910001CC
:1004F000909101019C012F5F3F4F309301012093A8
:1005000000010E94280B17C08091910290919202E5
:1005100001968C33910529F0909392028093910279
:1005200004C0109292021092910289E00E94370654
:10053000892BD9F3A3CF8AE00E943706892BD9F300
:1005400068EE73E080E090E0DF91CF910C949E071D
:100550003FB7F89480919A0290919B02A0919C02DF
:10056000B0919D0226B5A89B05C02F3F19F00196BA
:10057000A11DB11D3FBFBA2FA92F982F8827820F29
:10058000911DA11DB11DBC01CD0142E0660F771F79
:10059000881F991F4A95D1F708951F920F920FB6A1
:1005A0000F9211242F933F938F939F93AF93BF93F9
:1005B0008091960290919702A0919802B091990231
:1005C0003091950223E0230F2D3720F40196A11DD1
:1005D000B11D05C026E8230F0296A11DB11D209371
:1005E00095028093960290939702A0939802B093FD
:1005F000990280919A0290919B02A0919C02B091E5
:100600009D020196A11DB11D80939A0290939B02B9
:10061000A0939C02B0939D02BF91AF919F918F9147
:100620003F912F910F900FBE0F901F901895CF9272
:10063000DF92EF92FF920F931F93CF93DF936C01A2
:100640007C0187E0E80EF11CC0E0D0E0062F10E04E
:10065000B8010C2E02C0759567950A94E2F7617097
:10066000F70181917F010E9460062196C430D10577
:1006700079F7C601DF91CF911F910F91FF90EF9015
:10068000DF90CF900C94A301CF92DF92EF92FF9274
:100690000F931F93CF93DF93EC01F62E642F8C8181
:1006A0000E9460068D818F3F19F060E00E94600615
:1006B0008F850F2D10E084FF25C06E0187E0C80EE6
:1006C000D11CE12CF12CB8010E2C02C07595679558
:1006D0000A94E2F76170F60181916F010E94600651
:1006E000FFEFEF1AFF0A88E0E816F10461F7CE0188
:1006F000DF91CF911F910F91FF90EF90DF90CF90FE
:100700000C94A301B80184E0759567958A95E1F78B
:10071000CE010E9417036F2DCE01DF91CF911F9163
:100720000F91FF90EF90DF90CF900C94170341E072
:100730000E94440381E090E008951F920F920FB64B
:100740000F9211242F933F934F935F936F937F9357
:100750008F939F93AF93BF93EF93FF938091B900D3
:10076000887F803609F49CC068F5883209F45BC044
:1007700090F4803109F454C038F4882309F4F6C0A9
:10078000883009F44DC0F6C0883109F44CC080327D
:1007900009F45DC0EFC0803409F468C048F48033C8
:1007A00009F455C0883309F0E5C08093E802D8C049
:1007B000803509F44FC0883509F45DC0883409F0EC
:1007C000D9C0D6C0883909F4C7C0A8F4883709F45D
:1007D00067C038F4883609F463C0803709F460C014
:1007E000C9C0883809F4B8C0803909F45FC08038BE
:1007F00009F0C0C05BC0803B09F486C038F4803A81
:1008000009F466C0883A09F47FC0B4C0803C09F49A
:10081000A7C0883C09F4A4C0883B09F48AC0AAC0D8
:100820008091C50210C09091E7028091E60298176E
:1008300070F5E091E70281E08E0F8093E702F0E02F
:10084000EA53FD4F80818093BB0085EC86C0809386
:10085000E8028EC0E091E70281E08E0F8093E7020C
:100860008091BB00F0E0EA53FD4F80839091E70256
:100870008091E6026EC0E091E70281E08E0F8093E6
:10088000E7028091BB00F0E0EA53FD4F8083809146
:10089000E90281116DC081E08093C40284EA61C0E5
:1008A00083E08093EA0210928E02CFCF80918E0275
:1008B000803208F051C0E0918E0281E08E0F80936B
:1008C0008E028091BB00F0E0E259FD4F8083BDCFE6
:1008D00085EC8093BC001092EA0280918E028032F7
:1008E00030F4E0918E02F0E0E259FD4F1082609109
:1008F0008E0270E0E0919E02F0919F028EE692E0FF
:10090000099510928E0236C084E08093EA0210921C
:100910006D0210926C02E091A002F091A102099583
:1009200080916C02811105C081E080936C0210926D
:100930004C02E0916D0281E08E0F80936D02F0E039
:10094000E45BFD4F80818093BB0090916D028091AC
:100950006C02981708F479CF85E88093BC000AC030
:1009600085EC8093BC001092EA0204C01092E80269
:100970000E94C300FF91EF91BF91AF919F918F9122
:100980007F916F915F914F913F912F910F900FBE8B
:100990000F901F901895833081F028F4813099F0E2
:1009A0008230A1F008958730A9F08830B9F0843002
:1009B000D1F4809180008F7D03C0809180008F777B
:1009C00080938000089584B58F7702C084B58F7DB1
:1009D00084BD08958091B0008F7703C08091B000EE
:1009E0008F7D8093B000089540E0682F8BE193E005
:1009F0000C944403009769F0FC0101900020E9F792
:100A00003197AF01481B590BBC018BE193E00C946B
:100A10008C0080E090E0089581E00E94F4048BE374
:100A20009FE10197F1F70895282F30910E0331329D
:100A300008F04AC08091EA028111FCCF90910D0329
:100A400042E04093EA022093E9022FEF2093E8026C
:100A50001092E7023093E602EDEEF2E0A6ECB2E08F
:100A600020E0321721F041914D932F5FFACF109281
:100A7000C5022091C502990F922B9093C5029091C7
:100A8000C402913061F41092C4029091C502909317
:100A9000BB009091BC0093FDF8CF95EC01C095EEA2
:100AA0009093BC009091EA029230E1F39091E802B9
:100AB0009F3F79F08091E802803241F08091E80216
:100AC000803331F084E005C081E003C082E001C0E2
:100AD00083E01092EC0210920E031092EB02089544
:100AE0009091EA029111FCCF982F813208F090E2A8
:100AF00081E08093EA028093E9022FEF2093E802DD
:100B00001092E702290F2093E6028093C50280919C
:100B1000C502806D8093C5028091C402813061F46A
:100B20001092C4028091C5028093BB008091BC00EA
:100B300083FDF8CF85EC01C085EE8093BC008091E9
:100B4000EA028130E1F38091E702891710F4909175
:100B5000E702E6ECF2E0A4EAB2E080E0891721F0D7
:100B600021912D938F5FFACF1092A3028093A2025E
:100B700008950C94FA04643008F063E090912E0319
:100B8000691710F06FEF690FE62FF0E0E55EFC4F9C
:100B90009489890F80680C94F4048F929F92AF928D
:100BA000BF920F931F93CF93DF93CDB7DEB7A1977B
:100BB0000FB6F894DEBF0FBECDBF19A2423008F4C5
:100BC0004AE08E010F5D1F4F842E912CA12CB12C79
:100BD000A50194010E94420BE62FB901CA01015000
:100BE0001109EA3014F4E05D01C0E95CD801EC932E
:100BF000232B242B252B61F7C8010E94FA04A19610
:100C00000FB6F894DEBF0FBECDBFDF91CF911F911D
:100C10000F91BF90AF909F908F900895CF92DF92E9
:100C2000EF92FF926C01990FEE08FF08F7FE16C0D5
:100C300041E06DE28BE193E00E9444036627772751
:100C4000CB016C197D098E099F094AE00E94CD05F0
:100C50000196FF90EF90DF90CF9008954AE0C70192
:100C6000B601FF90EF90DF90CF900C94CD05CF931D
:100C7000DF93282F30E0F901E255FF4F8491F9010D
:100C8000E656FF4FD491F901EA57FF4FC491CC23A8
:100C900091F081110E94CB04EC2FF0E0EE0FFF1FCA
:100CA000E458FF4FA591B491EC91ED2381E090E0E1
:100CB00021F480E002C080E090E0DF91CF910895C0
:100CC0001F93CF93DF93282F30E0F901E255FF4FB8
:100CD0008491F901E656FF4FD491F901EA57FF4F8D
:100CE000C491CC23C1F0162F81110E94CB04EC2FAC
:100CF000F0E0EE0FFF1FEE58FF4FA591B4919FB7A4
:100D0000F894111104C08C91D095D82302C0EC91B5
:100D1000DE2BDC939FBFDF91CF911F91089510923E
:100D2000A3021092A2021092EC0210920E031092F3
:100D3000EA0281E08093E9021092C40261E082E15C
:100D40000E94600661E083E10E946006E9EBF0E04A
:100D500080818E7F808380818D7F808388E48093F3
:100D6000B80085E48093BC0085EF90E09093A102E9
:100D70008093A00286EF90E090939F0280939E0262
:100D80000895CF93DF9390E0FC01E656FF4F249146
:100D9000FC01EA57FF4F8491882361F190E0880FAE
:100DA000991FFC01E859FF4FC591D491FC01EE5801
:100DB000FF4FA591B491611109C09FB7F894888144
:100DC000209582238883EC912E230BC0623061F43E
:100DD0009FB7F8948881322F309583238883EC91D4
:100DE0002E2B2C939FBF06C08FB7F894E8812E2B33
:100DF00028838FBFDF91CF910895CF93DF93823007
:100E000028F090912A03986090932A0380932E03F0
:100E100010922F0380E48093300380E180933103AC
:100E200080E58093320361E080911F030E94C10638
:100E3000809120038F3F19F061E00E94C10661E0BC
:100E4000809121030E94C106CBE1D3E09E012B518A
:100E5000334080912A0384FD03C084E090E002C007
:100E600088E090E02196281739072CF461E08E8104
:100E70000E94C106EBCF8BE39DE00197F1F760E0A4
:100E800080911F030E94600660E0809121030E9410
:100E90006006809120038F3F19F060E00E94600699
:100EA00080912A0384FD20C063E08BE193E00E94DF
:100EB0001703CBE4D6E4CE010197F1F763E08BE1B1
:100EC00093E00E9417032197F1F763E08BE193E031
:100ED0000E94170383E592E00197F1F762E08BE14E
:100EE00093E00E94170315C080620E94F4048BE413
:100EF00096E40197F1F780912A0380620E94F4043E
:100F000083E592E00197F1F780912A0380620E94C5
:100F1000F40480912A0380620E94F40484E08093A8
:100F20002B038CE00E94F4040E940C0582E0809365
:100F30002C0386E0DF91CF910C94F4048F929F9262
:100F4000AF92BF92CF92DF92EF92FF926B017C0142
:100F50000E94A8024B015C01C114D104E104F10418
:100F6000F1F00E94A802DC01CB0188199909AA09B5
:100F7000BB09883E9340A105B10570F321E0C21A78
:100F8000D108E108F10888EE880E83E0981EA11CC4
:100F9000B11CC114D104E104F10419F7DDCFFF90B5
:100FA000EF90DF90CF90BF90AF909F908F9008957B
:100FB000CF93DF93CDB7DEB7A2970FB6F894DEBF1D
:100FC0000FBECDBF789484B5826084BD84B5816046
:100FD00084BD85B5826085BD85B5816085BD809104
:100FE0006E00816080936E0010928100809181007C
:100FF0008260809381008091810081608093810074
:10100000809180008160809380008091B100846035
:101010008093B1008091B00081608093B000809196
:101020007A00846080937A0080917A008260809355
:101030007A0080917A00816080937A0080917A00B2
:10104000806880937A001092C1000E948F060E94EF
:101050008F0682E00E94FD0660E089E00E94C106E2
:1010600060E08AE00E94C10660E088E00E94C1065C
:1010700061E08DE00E94C10660E080E00E94BB0557
:101080008CE291E00E94B90561E080E00E94BB051E
:101090008DE391E00E94B90560ED77E080E090E09B
:1010A0000E949E0760E080E00E94BB058EE491E014
:1010B0000E94B90561E080E00E94BB058FE591E0E8
:1010C0000E94B90560ED77E080E090E00E949E0705
:1010D000BB24B394B092EB0208E600930D03109288
:1010E000EC0210920E0360E08FE093E00E9450014A
:1010F00081E00E94140581E090E00E9470058FE07D
:1011000093E00E94070187FF79C089E791E00E9480
:10111000B600182F84E791E00E94B600F82E8CE705
:1011200091E00E94B600E82E8FE791E00E94B600A1
:10113000D82E82E891E00E94B600C82EB092EB0251
:1011400000930D031092EC0210920E0360E08FE00A
:1011500093E00E9450010AE08C2D602F0E94360B14
:10116000682F660F860F880F682F6C0D8FE093E055
:101170000E9450018D2D602F0E94360B682F660F44
:10118000860F880F682F6D0D8FE093E00E9450014D
:101190008E2D602F0E94360B682F660F860F880FEA
:1011A000682F6E0D8FE093E00E94500160E08FE0A9
:1011B00093E00E9450018F2D602F0E94360B682F04
:1011C000660F860F880F682F6F0D8FE093E00E94E7
:1011D000500160E18FE093E00E945001812F602F69
:1011E0000E94360B682F660F680F660F610F8FE045
:1011F00093E00E94500181E00E941405EAEFCE2E98
:10120000F0E0EF2EF0E0FF2EBB24B394A8E6AA2E68
:10121000B092EB02A0920D031092EC0210920E031A
:1012200060E08FE093E00E94500181E00E9414058D
:1012300087E090E00E9470058FE093E00E94070134
:101240008F77982F92959F70D82E9C9DD00C11244B
:101250008FE093E00E9407019C01332794E03595CD
:1012600027959A95E1F7982EC29E900C11248FE055
:1012700093E00E9407019C01332744E035952795B0
:101280004A95E1F7682EC29E600C11248FE093E02E
:101290000E9407018FE093E00E9407019C01332721
:1012A00054E0359527955A95E1F7782EC29E700C3B
:1012B00011248FE093E00E9407019C01332764E032
:1012C000359527956A95E1F7882EC29E800C1124EA
:1012D0008FE093E00E9407019C01332774E035956D
:1012E00027957A95E1F7C29E800D1124082F10E012
:1012F00088E00E943706892B09F068C060E080E032
:101300000E94BB0585E891E00E94B90561E080E09C
:101310000E94BB0586E991E00E94B90560ED77E087
:1013200080E090E00E949E070E940C0560E080E053
:101330000E94BB0587EA91E00E94B9050E948301E3
:1013400081E090E00E94CD0168EE73E080E090E0E3
:101350000E949E070E940C0560E080E00E94BB0591
:1013600084EB91E00E94B9050E94830168EE73E06E
:1013700080E090E00E949E0782E090E00E94CD0114
:101380000E940C0560E080E00E94BB0581EC91E0CA
:101390000E94B9050E94830183E090E00E94CD0184
:1013A00060E080E00E94BB058CE291E00E94B905FC
:1013B00061E080E00E94BB058EEC91E00E94B905DF
:1013C00060ED77E080E090E00E949E070E940C05AF
:1013D00060E080E00E94BB058FED91E00E94B905BE
:1013E00060E086E00E94BB05862D90E09093940219
:1013F000809393020E940E0683EE91E00E94B9054D
:10140000892D90E090939202809391020E940E06A3
:1014100083EE91E00E94B9058D2D90E090939002AB
:1014200080938F020E940E0661E080E00E94BB055F
:1014300085EE91E00E94B905672D70E080E090E0B4
:101440004AE00E94CD058CEE91E00E94B905682D1E
:1014500070E080E090E04AE00E94CD058CEE91E0E3
:101460000E94B905B8016053784F072E000C880B15
:10147000990B4AE00E94CD054E0187E1880E911C30
:101480000BE010E0C8010E94200B90E0F401819372
:1014900091934F010F5F1F4F0131110599F72F896C
:1014A000388D80919302909194022817390749F55D
:1014B000298D3A8D809191029091920228173907D7
:1014C00001F50E94B9010E94B9010E94B9010E9470
:1014D000B90160E080E00E94BB058EEE91E00E94C1
:1014E000B90561E080E00E94BB0581E092E00E94C6
:1014F000B9050E94B9010E94B9010E94B9010E9478
:10150000B9012B8D3C8D8091930290919402281704
:10151000390749F52D8D3E8D80919102909192026F
:101520002817390701F50E94B9010E94B9010E94EC
:10153000B9010E94B90160E080E00E94BB0584E12E
:1015400092E00E94B90561E080E00E94BB0581E065
:1015500092E00E94B9050E94B9010E94B9010E945F
:10156000B9010E94B9012F8D38A180919302909109
:1015700094022817390749F529A13AA180919102CF
:10158000909192022817390701F50E94B9010E9433
:10159000B9010E94B9010E94B90160E080E00E9497
:1015A000BB0587E292E00E94B90561E080E00E94FD
:1015B000BB0589E392E00E94B9050E94B9010E942F
:1015C000B9010E94B9010E94B90168EC70E080E0A5
:1015D00090E00E949E07E114F10409F419CE0E94E4
:1015E000000016CEEFE0F3E01382128288EE93E063
:1015F000A0E0B0E084839583A683B78386E091E082
:1016000091838083EBE1F3E01382128288E191E021
:101610009183808387E084838FEF858386E0868350
:1016200085E0878384E0808783E0818782E082870A
:101630001386148615861686178681E00C94FD069F
:10164000F999FECF92BD81BDF89A992780B508958A
:10165000262FF999FECF1FBA92BD81BD20BD0FB6CE
:10166000F894FA9AF99A0FBE01960895991B79E0B9
:1016700004C0991F961708F0961B881F7A95C9F722
:1016800080950895A1E21A2EAA1BBB1BFD010DC077
:10169000AA1FBB1FEE1FFF1FA217B307E407F50722
:1016A00020F0A21BB30BE40BF50B661F771F881FFE
:1016B000991F1A9469F760957095809590959B0194
:1016C000AC01BD01CF010895EE0FFF1F0590F4910D
:1016D000E02D099481E090E0F8940C946F0BF8945D
:0216E000FFCF3A
:1016E2000B0000000000500123018001F7001B01E4
:1016F2000701F8000000000097038C0080017F01C1
:10170200456E7465722054696D6520004D6564698B
:1017120063696E2072656D696E646572002055732F
:10172200696E672041726475696E6F20200042798C
:101732002053616464616D206B68616E20200045F6
:101742006E67696E656572732047617261676500D5
:101752004F637420313320323031390030313A3422
:10176200343A3539002020536574204D656469632D
:10177200696E65202000202052656D696E64657275
:101782002074696D652000456E7465722054696D20
:1017920065203100456E7465722054696D65203292
:1017A20000456E7465722054696D652033002020F7
:1017B20074696D652068617320736574202000541C
:1017C200696D653A00446174653A20002F0020205B
:1017D20054616B652047726F7570204F6E652020D3
:1017E2000020202020204D65646963696E652020F9
:1017F20020202000202054616B652047726F757095
:101802002054776F20200054616B652047726F75FA
:1018120070205468726565200020202020204D65CC
:0C182200646963696E65202020200000CE
:107E0000112484B714BE81FFF0D085E080938100F7
:107E100082E08093C00088E18093C10086E0809377
:107E2000C20080E18093C4008EE0C9D0259A86E02C
:107E300020E33CEF91E0309385002093840096BBD3
:107E4000B09BFECF1D9AA8958150A9F7CC24DD24C4
:107E500088248394B5E0AB2EA1E19A2EF3E0BF2EE7
:107E6000A2D0813461F49FD0082FAFD0023811F036
:107E7000013811F484E001C083E08DD089C08234E0
:107E800011F484E103C0853419F485E0A6D080C0E4
:107E9000853579F488D0E82EFF2485D0082F10E0AE
:107EA000102F00270E291F29000F111F8ED06801E7
:107EB0006FC0863521F484E090D080E0DECF843638
:107EC00009F040C070D06FD0082F6DD080E0C81688
:107ED00080E7D80618F4F601B7BEE895C0E0D1E017
:107EE00062D089930C17E1F7F0E0CF16F0E7DF06D8
:107EF00018F0F601B7BEE89568D007B600FCFDCFD4
:107F0000A601A0E0B1E02C9130E011968C91119780
:107F100090E0982F8827822B932B1296FA010C0160
:107F200087BEE89511244E5F5F4FF1E0A038BF0790
:107F300051F7F601A7BEE89507B600FCFDCF97BE46
:107F4000E89526C08437B1F42ED02DD0F82E2BD052
:107F50003CD0F601EF2C8F010F5F1F4F84911BD097
:107F6000EA94F801C1F70894C11CD11CFA94CF0C13
:107F7000D11C0EC0853739F428D08EE10CD085E9AC
:107F80000AD08FE07ACF813511F488E018D01DD067
:107F900080E101D065CF982F8091C00085FFFCCF94
:107FA0009093C60008958091C00087FFFCCF809118
:107FB000C00084FD01C0A8958091C6000895E0E648
:107FC000F0E098E1908380830895EDDF803219F02E
:107FD00088E0F5DFFFCF84E1DECF1F93182FE3DFCA
:107FE0001150E9F7F2DF1F91089580E0E8DFEE27F6
:047FF000FF270994CA
:027FFE00040479
:0400000300007E007B
:00000001FF
